:100000000C943F010C94C3040C949C040C94670161
:100010000C9467010C9467010C9467010C946701C0
:100020000C9467010C9467010C9467010C946701B0
:100030000C9467010C9467010C9467010C946701A0
:100040000C94F30D0C9467010C9410050C94EA04C5
:100050000C9467010C9467010C9467010C94670180
:100060000C9467010C946701FE06FE06F706F7067E
:1000700025071C071007CE06F206940650415F4D77
:1000800041580050415F484947480050415F4C4F3C
:10009000570050415F4D494E0031362062697473FC
:1000A000003820626974730044697361626C65642E
:1000B000006E524632344C30312B006E5246323490
:1000C0004C3031003235304B42505300324D4250AB
:1000D0005300314D42505300000102030405111238
:1000E000131415160A0B0C0D0E0F5354415455538F
:1000F0000909203D203078253032782052585F445D
:10010000523D25782054585F44533D2578204D4179
:10011000585F52543D25782052585F505F4E4F3DF6
:1001200025782054585F46554C4C3D25780D0A00E3
:10013000504120506F77657209203D2025530D0AEC
:100140000092008B0083007C00435243204C656E7C
:1001500067746809203D2025530D0A00A800A100FE
:1001600099004D6F64656C0909203D2025530D0AE7
:1001700000BB00B1004461746120526174650920C4
:100180003D2025530D0A00D200CC00C40044594E36
:1001900050442F4645415455524500434F4E464921
:1001A00047090052465F53455455500052465F433D
:1001B000480900454E5F52584144445200454E5F45
:1001C0004141090052585F50575F50302D3600545E
:1001D000585F41444452090052585F414444525FC1
:1001E00050322D350052585F414444525F50302DFB
:1001F0003100094E6577206379636C652062696719
:10020000696E2E2E2E00000000080002010000037F
:1002100004070000000000000000000000002500AE
:1002200028002B0000000000240027002A000404FE
:10023000040404040404020202020202030303038E
:10024000030301020408102040800102040810206A
:100250000102040810200D0A0025303278002030F9
:100260007800255309203D000D0A00203078253004
:10027000327800255309203D0000FB123D0E112469
:100280001FBECFEFD8E0DEBFCDBF11E0A0E0B1E0F0
:10029000E2E1F6E302C005900D92A83FB107D9F75D
:1002A00024E0A8EFB1E001C01D92A33EB207E1F740
:1002B00011E0CEE3D1E004C02197FE010E94FE19B7
:1002C000CD33D107C9F70E94450E0C94FC1A0C944B
:1002D000000008950895CF92DF92EF92FF920F935E
:1002E0001F93CF93DF936C017A018B01C0E0D0E0C4
:1002F000CE15DF0581F0D8016D918D01D601ED910C
:10030000FC910190F081E02DC6010995892B11F037
:100310002196EECF7E01C701DF91CF911F910F9102
:10032000FF90EF90DF90CF90089580E090E00895E7
:10033000FC01538D448D252F30E0842F90E0821BEB
:10034000930B541710F0CF96089501970895FC0170
:10035000918D828D981761F0828DDF01A80FB11DFC
:100360005D968C91928D9F5F9F73928F90E0089520
:100370008FEF9FEF0895FC01918D828D981731F0DA
:10038000828DE80FF11D858D90E008958FEF9FEF2E
:100390000895FC01918D228D892F90E0805C9F4F04
:1003A000821B91098F739927089580E092E00E9443
:1003B000C90121E0892B09F420E0822F0895FC0176
:1003C000848DDF01A80FB11DA35ABF4F2C91848DDE
:1003D00090E001968F739927848FA689B7892C9313
:1003E000A089B1898C91837080648C93938D848D66
:1003F000981306C00288F389E02D80818F7D808369
:100400000895EF92FF920F931F93CF93DF93EC0128
:1004100081E0888F9B8D8C8D981305C0E889F989C0
:10042000808185FD26C0F62E0B8D10E00F5F1F4FDB
:100430000F731127E02E8C8DE8120CC00FB607FC4D
:10044000FACFE889F989808185FFF5CFCE010E9436
:10045000DF01F1CF8B8DFE01E80FF11DE35AFF4F55
:10046000F0829FB7F8940B8FEA89FB8980818062C4
:100470000AC09FB7F894EE89FF896083E889F989FB
:1004800080818370806480839FBF81E090E0DF91F2
:10049000CF911F910F91FF90EF900895CF93DF932D
:1004A000EC01888D8823C9F0EA89FB89808185FD6C
:1004B00005C0A889B9898C9186FD0FC00FB607FCCD
:1004C000F5CF808185FFF2CFA889B9898C9185FF0E
:1004D000EDCFCE010E94DF01E7CFDF91CF910895EC
:1004E00080E090E0892B29F00E94D50181110C94C5
:1004F00000000895CF93C82F682F80E092E00E94FB
:1005000001028C2FCC0F990BCF910895CF93DF93DD
:10051000DC01EB01EC81FD818A819B810896E81763
:10052000F90718F480E090E021C03897FD83EC8350
:100530003097C1F31296CD91DC911397209751F02B
:10054000CF018C1B9D0B23E0959587952A95E1F7AC
:100550008D8303C01196FC93EE931396FC93EE9358
:1005600012971582148217821682CF01DF91CF91E4
:1005700008950E94DE1A0F931F93CF93DF93EC012F
:1005800088819981009729F02A813B8126173707B6
:1005900088F48B016F5F7F4F0E94181A009761F0FB
:1005A000998388831B830A832C813D81232B11F43B
:1005B000FC01108281E001C080E0DF91CF911F91AA
:1005C0000F910895CF93DF93DB01EC01E881F9816E
:1005D000C081D181209701F1448155814F5F5F4FE8
:1005E0001296CD91DC911397CE01840F951F14962E
:1005F0002D913C9115972817390760F013969C931D
:100600008E931297209741F060817181CE010E94F4
:10061000E31A02C0C0E0D0E0CE01DF91CF9108958F
:10062000EF92FF920F931F93CF93DF9300D0CDB73C
:10063000DEB78C0169831A82FC01E480F580FFEF4C
:10064000EF1AFF0AB7010E94BB02882381F0F8016C
:100650002081318184819581BE016F5F7F4F820F40
:10066000931F0E94F51AF801F582E48281E00F9051
:100670000F90DF91CF911F910F91FF90EF90089510
:10068000EF92FF920F931F93CF93DF93EB017A01C9
:10069000FC0100811181F80180819181BA016C1BFC
:1006A0007D0BFC0124813581620F731F0E94BB0208
:1006B000CE15DF0539F06991F801808191810E94A2
:1006C0001003F6CFDF91CF911F910F91FF90EF9024
:1006D0000895EF92FF921F93CF93DF93CDB7DEB7CC
:1006E00066970FB6F894DEBF0FBECDBF9C01CB015D
:1006F000FE0177964E2F1F2F5AE0E52EF12CB70101
:100700000E94C819805D8293CB010097C1F7512FD9
:10071000BF01C9010E94400366960FB6F894DEBF80
:100720000FBECDBFDF91CF911F91FF90EF90089545
:100730008F929F92AF92BF92CF92DF92EF92FF92F1
:100740000F931F93CF93DF93CDB7DEB766970FB6A6
:10075000F894DEBF0FBECDBF7C018E01095E1F4F36
:1007600068018AE0882E912CA12CB12CCB01BA0112
:10077000A50194010E94DC19942F852F605DF8017A
:1007800062938F01A901692F782F411551056105E9
:10079000710561F7A601BF01C7010E94400366967B
:1007A0000FB6F894DEBF0FBECDBFDF91CF911F9182
:1007B0000F91FF90EF90DF90CF90BF90AF909F9000
:1007C0008F900895CF93DF93EC01E881F9818081C8
:1007D00091810E9410038A819B8101969B838A8369
:1007E000DF91CF910895EF92FF920F931F93CF93D4
:1007F000DF936115710511F480E01CC041155105AE
:10080000C1F07B01EC018C819D818A01080F191FC9
:10081000B801CE010E94BB02882371F3288139817F
:100820008C819D81B701820F931F0E94F51A1D8351
:100830000C8381E0DF91CF911F910F91FF90EF909A
:100840000895CF93DF93EC0188819981009711F08F
:100850000E947C16198218821D821C821B821A82B9
:10086000DF91CF910895EF92FF920F931F93CF9353
:10087000DF93EC017B018A01BA010E94BB02811166
:1008800004C0CE010E94210407C01D830C83B70160
:10089000888199810E94F51ACE01DF91CF911F9135
:1008A0000F91FF90EF900895CF93DF93EC016115C6
:1008B000710559F0FB0101900020E9F73197AF0174
:1008C000461B570B0E94330402C00E942104CE0134
:1008D000DF91CF910895CF93DF93EC01FB01861751
:1008E000970761F0608171816115710529F044817C
:1008F00055810E94330402C00E942104CE01DF9181
:10090000CF910895FC01808191810C947C16FC01AB
:100910001182108213821282158214826115710570
:1009200051F0FB0101900020E9F73197AF01461B20
:10093000570B0C94330408951F920F920FB60F9229
:1009400011242F933F934F935F936F937F938F93D4
:100950009F93AF93BF93EF93FF93E0910201F091C8
:1009600003010995FF91EF91BF91AF919F918F91F5
:100970007F916F915F914F913F912F910F900FBE9B
:100980000F901F9018951F920F920FB60F9211247F
:100990002F933F934F935F936F937F938F939F9387
:1009A000AF93BF93EF93FF93E0910001F0910101AA
:1009B0000995FF91EF91BF91AF919F918F917F9199
:1009C0006F915F914F913F912F910F900FBE0F90BC
:1009D0001F9018951F920F920FB60F9211242F930C
:1009E0003F934F935F936F937F938F939F93AF93B7
:1009F000BF93EF93FF9380E092E00E94DF01FF91AD
:100A0000EF91BF91AF919F918F917F916F915F9186
:100A10004F913F912F910F900FBE0F901F901895FF
:100A20001F920F920FB60F9211242F938F939F93C3
:100A3000EF93FF93E0911002F09111028081E09119
:100A40001602F091170282FD12C090818091190266
:100A50008F5F8F7320911A02821751F0E091190273
:100A6000F0E0E050FE4F958F8093190201C0808125
:100A7000FF91EF919F918F912F910F900FBE0F904B
:100A80001F9018958EBD00000DB407FEFDCF8EB5EA
:100A90000895CF92DF92EF92FF920F931F93CF931F
:100AA000DF93CDB7DEB7A0970FB6F894DEBF0FBEC9
:100AB000CDBF60E787E00E948D0A282F2071982F14
:100AC000907485FD1092F801222319F081E0809343
:100AD000F801992379F01A821982FE0133968EE18A
:100AE000DF011D928A95E9F71091BE04103240F0A3
:100AF00000E207C087E10E94A20A80FD43C0EBCF5D
:100B0000012F8091BF04811102C0101B01C010E0B1
:100B10000E948A0A81E60E944205FE0131967F0109
:100B20006F01015038F08FEF0E944205D7018D937D
:100B30007D01F7CF112329F08FEF0E94420511505C
:100B4000F9CF0E94870A60E787E00E948D0AB6010C
:100B50008DE992E00E9454048091A1029091A2023A
:100B6000892B39F0E0919D02F0919E0280818111E4
:100B700004C081E08093F80105C081E08093F90111
:100B80001092FA01A0960FB6F894DEBF0FBECDBF4B
:100B9000DF91CF911F910F91FF90EF90DF90CF9059
:100BA0000895EF92FF920F931F93CF93DF93EB0182
:100BB000FB0101900020E9F731978F01061B170B0D
:100BC000FC01E080F180F70180819181FC0164816A
:100BD0007581600F711F0E94BB020C0F1D1F0C1747
:100BE0001D0739F06991F701808191810E941003FE
:100BF000F6CFDF91CF911F910F91FF90EF90089565
:100C0000FF920F931F93CF93DF936115710549F402
:100C100063E871E0DF91CF911F910F91FF900C94E9
:100C2000D1058B01EC0162E2CE010E94E203F801E2
:100C300061918F01662351F0E4E7F1E0F080FF203D
:100C400099F38181681759F03296F8CF62E2CE01AC
:100C5000DF91CF911F910F91FF900C94E2036CE50F
:100C6000CE010E94E2036F2DDFCF0F931F93CF932E
:100C7000DF938C01EB016BE70E94E2030990D881BE
:100C8000C02D2097E1F06E817F81C8010E9400068F
:100C90006AE3C8010E94E203B801CE010E94670620
:100CA0008D81882361F098E08902C00DD11D112447
:100CB000209729F06CE2C8010E94E203E2CF6DE7C1
:100CC000C801DF91CF911F910F910C94E2032F92F5
:100CD0003F924F925F926F927F928F929F92AF92CC
:100CE000BF92CF92DF92EF92FF920F931F93CF9319
:100CF000DF93CDB7DEB766970FB6F894DEBF0FBEB1
:100D0000CDBF7C018B01DC0114968C91E82FEF772D
:100D10008E2F90E0FC013197EA30F10508F0A4C075
:100D2000EC5CFF4F0C94FE19F7014080518062800B
:100D30007380A3019201C301B2010E94CC178823E2
:100D400019F068E871E092C020E030E0A901C30129
:100D5000B2010E94CC1787FF08C06DE2C8010E9453
:100D6000E20377FA709477F8709420E030E0A901FC
:100D7000C301B2010E94CC17882309F47BC0A301F0
:100D80009201C301B2010E942819A30192010E949D
:100D9000CC1781116FC06AE971E068C06BE5C801CA
:100DA0000E94E203D701ED90FC90E114F104A9F058
:100DB000B801C7010E946706F7018581882369F0A1
:100DC000F8E08F02E00CF11C1124E114F10429F089
:100DD0006CE2C8010E94E203E8CF6DE5C8010E9401
:100DE000E203AEC1B701C8010E943506A9C1D7010F
:100DF0006D917C91C8010E940006A2C1F701C080DC
:100E0000D180E280F380EC0CFD1CEC14FD0409F4AD
:100E100097C1D6016D916D01C8010E94E203F5CF23
:100E2000F701C080D180E280F3806DE2C8010E94AA
:100E3000E203B701A60105C0D7014D915D916D9107
:100E40007C91C8010E9498037BC1F7018081918148
:100E5000A281B381892B8A2B8B2B19F06FE871E06B
:100E600005C064E971E002C063E871E0C8010E9456
:100E7000D10566C120E836E948E15BE4C301B2016F
:100E80000E94C31987FF29C160E2E62EF12C75E0AC
:100E9000B72E212C312C20E030E0A901C301B20192
:100EA0000E94C319181694F52CEA35EC47E257E373
:100EB000C301B2010E94CC17181644F19FEFB91676
:100EC00029F1AB2DB4E0AB0260011124F601E65F1D
:100ED000FE4FA301920160817181828193810E9402
:100EE000C31918167CF4F601E65CFE4F20813181AF
:100EF00042815381C301B2010E9432182B013C018F
:100F00002E183F08F594E794BA94D8CFC301B201E4
:100F10000E9494194B015C016B017C01E6E0EE8BB1
:100F200080E492E4AFE0B0E08A8B9B8BAC8BBD8B0E
:100F30009E89998BA92FA150AE8BBAE0CB16D10414
:100F4000E104F104C8F06A897B898C899D892AE0D3
:100F500030E040E050E00E94DC192A8B3B8B4C8B48
:100F60005D8BC701B6012AE030E040E050E00E940E
:100F7000DC1969017A01DCCFC501B4010E94D117E7
:100F80009B01AC01C301B2010E9427196B017C01D6
:100F90006A897B898C899D890E94D1179B01AC014C
:100FA000C701B6010E9432182B013C010E9494191E
:100FB0006B017C010E94D1179B01AC01C301B201FE
:100FC0000E9427199B01AC010E9428190E949419C4
:100FD000C60ED71EE81EF91E8A899B89AC89BD8979
:100FE000C816D906EA06FB06E0F09FEF891A990AAF
:100FF000A90AB90A2114310489F0AAE08A169104D9
:10100000A104B10458F0BFEF2B1A3B0AC12CD12C1C
:101010007601812C912C5401839403C0C12CD12CD6
:1010200076013AE0432E512C612C712CC701B60198
:10103000A30192010E94DC19672B682B692B41F4F4
:10104000E9891E162CF469017A01E150E98BEECF93
:10105000B501A401C8010E949803F989FF2329F171
:101060005F2E5E0181E1A80EB11C35015A949FEFFD
:10107000591679F0C701B6012AE030E040E050E0AF
:101080000E94DC19605DD5016E935D0169017A01F2
:10109000EDCFB301B9896B1B71098EE2FB0182931D
:1010A000BF01A301C8010E94400337FE0AC06CE8DB
:1010B00071E0C8010E94D10566277727621973097C
:1010C00008C021143104E1F165E6C8010E94E20381
:1010D000B101C8010E94690333C082E5A82E81E0F6
:1010E000B82E92E2C92E91E0D92E20E2E22EF12C08
:1010F000212C312CA3019201D5019E918E917E91DC
:101100006E915D010E94CC1718166CF0F6012489CF
:10111000358946895789C301B2010E9432182B01D3
:101120003C012E0C3F1CF594E794F4E0CF1AD10853
:101130008AE3A81681E0B806E9F6BB24BA94ABCEE0
:1011400066960FB6F894DEBF0FBECDBFDF91CF918C
:101150001F910F91FF90EF90DF90CF90BF90AF90D5
:101160009F908F907F906F905F904F903F902F90C7
:101170000895CF92DF92EF92FF920F931F93CF9338
:10118000DF93009761F16115710549F16A018B01E7
:101190007C01FC01C081D181209799F06E817F8113
:1011A0006115710529F0C8010E94EC1A892BD1F054
:1011B0008D81882331F0F8E08F02C00DD11D1124FC
:1011C000EBCFB601C7010E948602FC01892B39F0E2
:1011D00084818F77848317830683CF0104C080E0E6
:1011E00090E001C0CE01DF91CF911F910F91FF9050
:1011F000EF90DF90CF9008958F929F92AF92BF9221
:10120000CF92DF92EF92FF920F931F93CF93DF93D2
:1012100000D0CDB7DEB70097E9F1FB018080918067
:1012200081149104B9F16A015B017C01FC01008128
:10123000118101151105A9F0F80166817781611509
:10124000710529F0C4010E94EC1A892B09F1F801FB
:101250008581882331F0F8E08F02000D111D1124E3
:10126000E8CFB601C7010E9486028C01BA82A9822A
:10127000892B81F0B601CE0101960E94E2029C0109
:10128000892B41F0F80194819068948337832683F9
:10129000C80102C080E090E00F900F90DF91CF91E5
:1012A0001F910F91FF90EF90DF90CF90BF90AF9084
:1012B0009F908F9008950F931F93CF93DF9300D04B
:1012C000CDB7DEB78C017A836983BA01CE0101966E
:1012D0000E94E2029C01F801948190782115310569
:1012E00031F0946094833183208381E003C0F8015E
:1012F000948380E00F900F90DF91CF911F910F9119
:10130000089590E0FC01EE5BFD4F2491FC01E25D4D
:10131000FD4F8491882399F090E0880F991FFC017C
:10132000EC5DFD4FA591B491FC01E65EFD4F85910A
:1013300094918FB7F894EC91E22BEC938FBF0895C2
:10134000E9EAF2E0818192819483838387819085A9
:101350009683858385858078896085871286118646
:101360001486138662EB72E08AEA92E00895CF93C6
:10137000DF9300D000D000D0CDB7DEB723EA32E053
:101380003E832D839E012B5F3F4F3A8329831C822E
:101390001B82FC01608171816115710529F0CE010C
:1013A00001960E94350606C063E871E0CE01019601
:1013B0000E94D1058B819C8126960FB6F894DEBFE2
:1013C0000FBECDBFDF91CF9108950F931F93CF93A1
:1013D000DF93CDB7DEB729970FB6F894DEBF0FBE07
:1013E000CDBF8C01862FF8011182108213821282E8
:1013F000158214824AE0BE016F5F7F4F90E00E9429
:101400005C13BE016F5F7F4FC8010E945404299690
:101410000FB6F894DEBF0FBECDBFDF91CF911F9105
:101420000F91089542E050E069EE71E080E092E0B3
:101430000C946B0190E0FC01EA5FFD4F2491FC01EC
:10144000EE5BFD4F3491FC01E25DFD4FE491EE2334
:1014500009F43CC0222339F1233091F038F42130D3
:10146000A9F0223001F584B58F7D12C0273091F0AC
:101470002830A1F02430B9F4809180008F7D03C022
:10148000809180008F77809380000DC084B58F7726
:1014900084BD09C08091B0008F7703C08091B000F7
:1014A0008F7D8093B000F0E0EE0FFF1FE65EFD4FF2
:1014B000A591B4919FB7F894611104C08C913095B7
:1014C000382302C0EC913E2B3C939FBF08959CB5FE
:1014D0009F7D9CBD9CB5937F9CBD9CB59C7F9CBD16
:1014E0009DB591609DBD682F8091B9040E941A0A34
:1014F0008091CB049091CC048230910538F0880F14
:10150000991F880F991F05970197F1F7089581E0BA
:101510000C94670A80E00C94670ACF93DF93C82F7E
:10152000D62F0E948A0A8C2F8F7180620E944205FA
:10153000C82F8D2F0E9442050E94870A8C2FDF91B1
:10154000CF910895CF93C82F0E948A0A8C2F8F7154
:101550000E9442058FEF0E944205C82F0E94870A11
:101560008C2FCF910895FF920F931F93CF93DF930A
:10157000C62FD42F9F938F9383E792E09F938F93EF
:101580000E94C113DC0F0F900F900F900F900BE68D
:1015900012E0CD1791F0FF24F394FC0E8C2F0E94E3
:1015A000A20A1F928F931F930F930E94C1130F9053
:1015B0000F900F900F90CF2DECCF88E692E09F9385
:1015C0008F930E94C1130F900F90DF91CF911F91C5
:1015D0000F91FF9008950F931F93CF938C0186E096
:1015E0000E94A20AC82FC77D0230110531F4C062E3
:1015F0008BE990E0A0E0B0E00DC00130110529F0CA
:1016000085E590E0A0E0B0E005C0C86081E490E02E
:10161000A0E0B0E08093C7049093C804A093C904ED
:10162000B093CA046C2F86E00E948D0A86E00E9467
:10163000A20A91E0C81390E0892FCF911F910F91DA
:1016400008952F923F924F925F926F927F928F9266
:101650009F92AF92BF92CF92DF92EF92FF920F9341
:101660001F93CF93DF931F92CDB7DEB7962E342E04
:101670004DB65EB69F938F9382E692E09F938F93D1
:101680000E94C113390C0F900F900F900F908EE5B0
:10169000C82E82E0D82E99E5A92E92E0B92E931497
:1016A00009F44AC06DB67EB62090C504022D10E044
:1016B0008DB79EB7801B910B0FB6F8949EBF0FBEDF
:1016C0008DBFEDB7FEB731967F01F1E0F90DF983DB
:1016D0000E948A0A892D8F710E94420547012220AB
:1016E00041F08FEF0E944205F40181934F012A944B
:1016F000F6CF0E94870ADF92CF920E94C1130E0D8F
:101700001F1D0F900F90015011090E151F0568F055
:10171000F80180811F928F93BF92AF920E94C113F4
:101720000F900F900F900F90EECF0FB6F8947EBEF3
:101730000FBE6DBE9980B3CF86E592E09F938F93E5
:101740000E94C1130F900F900FB6F8945EBE0FBEAB
:101750004DBE0F90DF91CF911F910F91FF90EF90B1
:10176000DF90CF90BF90AF909F908F907F906F90C1
:101770005F904F903F902F900895EF92FF920F93BC
:101780001F93CF93DF93182F7B01C42F0E948A0AE7
:10179000812F8F7180620E944205D82F8701CC2350
:1017A00039F0F80181918F010E944205C150F7CFB5
:1017B0000E94870A8D2FDF91CF911F910F91FF908B
:1017C000EF9008950F931F93CF93DF938C01C7EB96
:1017D000D4E04E85BC018AE00E94BD0B4E85B80165
:1017E00080E10E94BD0B6F8181E1DF91CF911F915C
:1017F0000F910C948D0ACF93DF93C091BE04DC2F20
:10180000C111D1E08091BF04811102C0CD1B01C084
:10181000C0E00E948A0A80EA0E944205DD2319F096
:1018200084E60E944205CC2329F080E00E94420514
:10183000C150F9CF0E94870A8091B7049091B804F3
:101840002091B9043091BA048217930719F061E02E
:101850000E941A0A8091B7049091B8042091B904AB
:101860003091BA048217930729F060E0DF91CF919D
:101870000C941A0ADF91CF9108958F929F92AF92A4
:10188000BF92CF92DF92EF92FF926B017C010E9498
:10189000CE0D4B015C01C114D104E104F104F1F05F
:1018A0000E94CE0DDC01CB0188199909AA09BB0958
:1018B000883E9340A105B10570F321E0C21AD1081A
:1018C000E108F10888EE880E83E0981EA11CB11C87
:1018D000C114D104E104F10419F7DDCFFF90EF90BA
:1018E000DF90CF90BF90AF909F908F9008952F92F0
:1018F0003F924F925F926F927F928F929F92AF92A0
:10190000BF92CF92DF92EF92FF920F931F93CF93EC
:10191000DF93CDB7DEB7CB55D1090FB6F894DEBF54
:101920000FBECDBF6C017B01442ECE0101964C0150
:101930008E01035C1F4F5C0162E871E0C4010E94EC
:10194000870496E0890E911C08151905A9F7712CDA
:10195000512C96E0692E872D90E0F7012481358186
:101960008217930708F043C020813181211531058A
:1019700029F41092CF04EFECF4E003C0F901E80F72
:10198000F91F4081463211F453942FC021153105BF
:1019900029F41092CF04EFECF4E003C0F901E80F52
:1019A000F91F30804501659C800C911C11241EAEEE
:1019B0001DAE21961FAE1EAE219723961FAE1EAE02
:1019C0002397B401C8010E946B04632DC8010E94D3
:1019D0001003811103C0C8010E942104B801C40191
:1019E0000E946B04C8010E9482047394B4CF62E821
:1019F00071E083EA92E00E9454040E94A0096C9670
:101A00006CAF7DAF8EAF9FAF6C97312C86E0282EE8
:101A10007E01F2E5EF0EF11C3501239C600C711C78
:101A20001124632DCE01855B9F4F0E94E5096CEE6A
:101A300071E0C7010E94870461964EAD5FAD61976A
:101A40002D966EAD7FAD2D97C7010E94F3038111D6
:101A500003C0C7010E9421046C968CAD9DADAEAD54
:101A6000BFAD6C9722968CAF9DAFAEAFBFAF229744
:101A70002496FFAEEEAE249787E0FE01FD96DE01D0
:101A8000AC5BBF4F01900D928A95E1F729968EAC21
:101A90009FAC2997A401B70127968EAD9FAD2797DC
:101AA0000E94FC08009721F0A401B3010E945B0989
:101AB000C7010E948204CE01855B9F4F0E94820471
:101AC0003394531408F0A8CF6C968CAD9DADAEAD99
:101AD000BFAD6C9722968CAF9DAFAEAFBFAF2297D4
:101AE00081EF91E024969FAF8EAF249787E0FE01AF
:101AF000FD96DE01A55BBF4F01900D928A95E1F73F
:101B000060964EAD5FAD609761EF71E02E968EAD41
:101B10009FAD2E970E94B908FC01512C612C712CAD
:101B2000892B41F094819078966094834082518211
:101B300062827382CE01885A9F4F0E94B709F601D4
:101B400011821082138212821582148263EA72E07B
:101B5000C6010E946B0406501109C8010E9482044C
:101B6000A016B106C1F7C601C55ADF4F0FB6F894EB
:101B7000DEBF0FBECDBFDF91CF911F910F91FF90C0
:101B8000EF90DF90CF90BF90AF909F908F907F901D
:101B90006F905F904F903F902F9008953FB7F894CB
:101BA0008091D5049091D604A091D704B091D80427
:101BB00026B5A89B05C02F3F19F00196A11DB11DA8
:101BC0003FBFBA2FA92F982F8827820F911DA11DE3
:101BD000B11DBC01CD0142E0660F771F881F991F20
:101BE0004A95D1F708951F920F920FB60F921124C4
:101BF0002F933F938F939F93AF93BF938091D10483
:101C00009091D204A091D304B091D4043091D00427
:101C100023E0230F2D3720F40196A11DB11D05C02F
:101C200026E8230F0296A11DB11D2093D0048093B6
:101C3000D1049093D204A093D304B093D4048091A0
:101C4000D5049091D604A091D704B091D804019600
:101C5000A11DB11D8093D5049093D604A093D70401
:101C6000B093D804BF91AF919F918F913F912F91E5
:101C70000F900FBE0F901F9018958DE992E00E9473
:101C8000820483EA92E00C948204CF93DF93CDB771
:101C9000DEB7C955D1090FB6F894DEBF0FBECDBF70
:101CA000789484B5826084BD84B5816084BD85B537
:101CB000826085BD85B5816085BD80916E00816043
:101CC00080936E00109281008091810082608093E9
:101CD00081008091810081608093810080918000EB
:101CE0008160809380008091B10084608093B10016
:101CF0008091B00081608093B00080917A00846010
:101D000080937A0080917A00826080937A0080913B
:101D10007A00816080937A0080917A008068809355
:101D20007A001092C100E0911002F091110282E05D
:101D30008083E0910C02F0910D021082E0910E027E
:101D4000F0910F0280E1808310921802E09114025A
:101D5000F091150286E08083E0911202F091130267
:101D6000808180618083E0911202F0911302808172
:101D700088608083E0911202F09113028081806874
:101D80008083E0911202F091130280818F7D808325
:101D900060E070E08AE792E00E9476138091B704D9
:101DA0009091B8042091B9043091BA048217930736
:101DB00011F00E9481098091B9049091BA04209198
:101DC000B7043091B8042817390711F00E9481092F
:101DD0001FB7F8948091FB01811124C0E8E3F2E081
:101DE0008491ECE4F2E09491E82FF0E0EE0FFF1F15
:101DF000EC5DFD4FA591B491EC91E92321F461E0F4
:101E00008AE00E941A0A8AE00E9481098CB58061EA
:101E10008CBD8CB580648CBD8DE00E9481098BE007
:101E20000E9481098091FB018F5F8093FB011FBF9E
:101E30008091B7049091B8042091B9043091BA040C
:101E40008217930719F060E00E941A0A81E00E944D
:101E5000670A65E070E080E090E00E943D0C6CE075
:101E600080E00E948D0A6FE584E00E948D0A82E086
:101E700090E00E94EB0A882319F081E08093BD0472
:101E800086E00E94A20A80E090E00E94EB0A0E9495
:101E90008A0A80E50E94420583E70E9442050E946B
:101EA000870A60E08DE10E948D0A60E08CE10E946B
:101EB0008D0A1092BF0460E787E00E948D0A6CE4EF
:101EC00085E00E948D0A0E948A0A82EE0E944205E5
:101ED0000E94870A0E948A0A81EE0E9442050E949F
:101EE000870A80E00E94A20A81FD0BC0682F626011
:101EF00080E00E948D0A65E070E080E090E00E9442
:101F00003D0C80E00E94A20A682F6E7F80E00E9454
:101F10008D0A86E00E94A20A682F676086E00E9410
:101F20008D0A82E090E00E94EB0A8DE10E94A20AF5
:101F3000682F66608DE10E948D0A8CE10E94A20AE2
:101F4000682F63608CE10E948D0A11E01093BF043A
:101F50008DE10E94A20A682F64608DE10E948D0AC3
:101F60008CE10E94A20A682F6F638CE10E948D0AA7
:101F70001093BF0487E591E00E94E20BE5EEF0E0EC
:101F800084914091C50462E571E00E94BD0BEFEDC4
:101F9000F0E084916091BE040E948D0A82E00E946C
:101FA000A20AE9EDF0E0E49161E070E001C0660FA3
:101FB000EA95EAF7682B82E00E948D0A0E948A0A5D
:101FC0008FEF0E944205182F0E94870A812F90E010
:101FD000212F21701F922F939595879587709927B0
:101FE0009F938F9314FB882780F91F928F9315FB83
:101FF000882780F91F928F9316FB882780F91F92FC
:102000008F931F921F938AEE90E09F938F930E946D
:10201000C11342E06AE085EE91E00E94210B44E0AA
:102020006CE088ED91E00E94B30A41E060E18FEC42
:1020300091E00E94210B46E061E184EC91E00E9476
:10204000B30A41E061E08DEB91E00E94B30A41E008
:1020500062E083EB91E00E94B30A41E065E08CEA24
:1020600091E00E94B30A41E066E083EA91E00E94B9
:10207000B30A41E060E08BE991E00E94B30A42E0DC
:102080006CE18DE891E00E94B30A86E00E94A20A0A
:1020900088720FB6F894DEBF0FBECDBF803241F01C
:1020A00021E090E0883009F020E0E22FF92F02C013
:1020B000E2E0F0E0EE0FFF1FE957FE4F85919491AB
:1020C0009F938F9385E791E09F938F930E94C11315
:1020D000E091BD04F0E0EE0FFF1FEF58FE4F859139
:1020E00094919F938F9382E691E09F938F930E94A8
:1020F000C11380E00E94A20A182F81E00E94A20A68
:102100000FB6F894DEBF0FBECDBF13FD02C088230B
:1021100029F012FF06C0E2E0F0E005C0E0E0F0E0E8
:1021200002C0E1E0F0E0EE0FFF1FE45AFE4F8591A0
:1021300094919F938F9389E491E09F938F930E9452
:10214000C11386E00E94A20A8670E82FF0E0EF5BE0
:10215000FE4F859194919F938F9380E391E09F939D
:102160008F930E94C11362E370E080E090E00E94D0
:102170003D0C89E495E090930101809300018091EA
:1021800069008C7F80936900E89A0FB6F894DEBFEF
:102190000FBECDBF7E0130E5E30EF11C2AE0222EFA
:1021A000312C412C512C02EF11E0F80164916111A6
:1021B0002FC00E94120A8091FC019091FD01A09114
:1021C000FE01B091FF010196A11DB11D8093FC019C
:1021D0009093FD01A093FE01B093FF0162E871E0CE
:1021E000CE0182960E94870462E871E0CE01889653
:1021F0000E94870487E5A82E81E0B82E9E012E5DFF
:102200003F4F69014E013EE2830E911C860109C0D9
:1022100080E092E00E9401020F5F1F4F892B29F698
:10222000C8CFC5010E94E20B68EC70E080E090E04E
:102230000E943D0C8091FA01811109C08091F90141
:10224000811132C00E94FB0B81E08093FA01712C56
:102250008091FA01811102C0612C21C08091F801A6
:10226000882371F00E94FB0B95E0971518F4662403
:10227000639415C0739464EF71E080E090E004C053
:1022800064E670E080E090E00E943D0CE1CF6110D8
:102290001BC062E370E080E090E00E943D0C809102
:1022A000F9018823A1F301C0712C1092F9011A825F
:1022B00019821C821B821E821D826DE972E0CE0192
:1022C00001960E946B0406C063EE71E0CE01019698
:1022D0000E948704472DBE016F5F7F4FCE01865B52
:1022E0009F4F0E94770CCE0101960E948204F80154
:1022F000808191810097E1F02C966EAD7FAD2C9797
:102300006115710599F04281538160962EAD3FAD04
:1023100060974217530750F00E94F51A60968EADF1
:102320009FAD6097F801958384831DC00E947C1641
:102330002C968EAD9FAD2C97F801918380832E96BD
:102340008EAD9FAD2E979383828360968EAD9FADA9
:102350006097958384832C961FAE1EAE2C972E9685
:102360001FAE1EAE2E9760961FAE1EAE6097CE01BA
:10237000865B9F4F0E948204F5E0AF0EB11C0A5F9E
:102380001F4F8016910609F04CCF62E871E083EA96
:1023900092E00E9454040E94A0096A966CAF7DAF3F
:1023A0008EAF9FAF6A97B12C6B2DCE01865B9F4F8E
:1023B0000E94E50963EA71E0C7010E948704609604
:1023C0004EAD5FAD60972C966EAD7FAD2C97C7017B
:1023D0000E94F303811103C0C7010E9421046A9681
:1023E0008CAD9DADAEADBFAD6A978A839B83AC8348
:1023F000BD83FF82EE8287E0FE013196DE019E966C
:1024000001900D928A95E1F709A91AA9A801B701CF
:102410008FA598A90E94FC08009721F0A801B60199
:102420000E945B09C7010E948204CE01865B9F4F18
:102430000E948204B39426E0C20ED11C32E0B31293
:10244000B3CF6A968CAD9DADAEADBFAD6A978A83B2
:102450009B83AC83BD8388EA91E09F838E8387E072
:10246000FE013196DE01AD5BBF4F01900D928A9562
:10247000E1F728964EAD5FAD289768EA71E02696A1
:102480008EAD9FAD26970E94B908FC01892B41F0C3
:10249000948190789360948384EB91E0918380831E
:1024A0006A968CAD9DADAEADBFAD6A978A839B83B6
:1024B000AC83BD8382EC91E09F838E8387E0FE0135
:1024C0003196DE01DC9601900D928A95E1F7219616
:1024D0004EAD5FAD219762EC71E08DAD9EAD0E9477
:1024E000B908FC01892B41F0948190789360948322
:1024F0008BEC91E0918380836A968CAD9DADAEADFF
:10250000BFAD6A978A839B83AC83BD838CED91E0DA
:102510009F838E8387E0FE013196DE01D596019080
:102520000D928A95E1F748AD59AD8090FC019090ED
:10253000FD01A090FE01B090FF016CED71E08EA94D
:102540009FA90E94B908FC01892B41F094819078E1
:102550009660948380829182A282B382CE018A5A4D
:102560009F4F0E94B7094091A7025091A802609125
:10257000A3027091A40280E092E00E946B010E948D
:10258000120A2091A7023091A80240E050E019A25F
:102590008E010F5D1F4FCA01B901A20191010E9476
:1025A000DC19605DF80162938F0121153105410549
:1025B000510589F7309761F001900020E9F73197D4
:1025C000AF01401B510BB80180E092E00E946B010B
:1025D0000E94120A60E177E280E090E00E943D0CE8
:1025E000CE0188960E948204CE0182960E948204C7
:1025F0000E947002D8CDE0E0F2E01382128288EEF1
:1026000093E0A0E0B0E084839583A683B78386E659
:1026100091E09183808385EC90E09587848784ECBA
:1026200090E09787868780EC90E0918B808B81EC9F
:1026300090E0938B828B82EC90E0958B848B86EC80
:1026400090E0978B868B118E128E138E148EE7EB93
:10265000F4E087E090E09183808388E090E09383CA
:102660008283168280E28783108685E0868785E0F4
:1026700090E0A0E0B0E0848B958BA68BB78B1186A1
:10268000E9EAF2E08AE0808387EB92E0928381833B
:102690009483838387EB94E09683858390878783F5
:1026A00062E871E083EA92E00E94870462E871E0E8
:1026B0008DE992E00C948704BB27FB015527AA27DC
:1026C000880F991FAA1FA41710F0A41B83955051BF
:1026D000B9F7A05DAA3308F0A95DA193009779F737
:1026E000B111B1931192CB010C9422170F931F9348
:1026F000CF93DF93009731F46115710519F480E0F1
:1027000090E03AC08B01EC016EE070E081E090E077
:102710000E94C815FC01892B91F380E88383011581
:10272000110571F01387028781E883838091D904B2
:102730009091DA04892B21F4F093DA04E093D90420
:102740002097C9F0D187C08783818260838380917D
:10275000DB049091DC04892B71F4F093DC04E093AA
:10276000DB048091DD049091DE04892B21F4F09349
:10277000DE04E093DD04CF01DF91CF911F910F9133
:102780000895A0E0B0E0E7ECF3E10C94FE18AE0190
:10279000495F5F4FDA016D917D91AD0109ED14E064
:1027A000F80182819381DC0113962C9113972860A4
:1027B00013962C930E94E713D8011296ED91FC9189
:1027C00013972381277F2383E4E00C941A19ABE04D
:1027D000B0E0EDEEF3E10C94F0186C017B018A019E
:1027E000FC0117821682838181FFCCC1CE01019644
:1027F0003C01F6019381F70193FD859193FF81914F
:102800007F01882309F4BAC1853239F493FD85919B
:1028100093FF81917F01853229F4B60190E00E94F7
:102820003217E7CF912C212C312CFFE1F315D8F092
:102830008B3279F038F4803279F08332A1F4232D91
:1028400020611DC08D3261F0803369F4232D216039
:1028500016C0832D8260382EE32DE4603E2E2AC000
:10286000F32DF8601DC037FC2DC020ED280F2A3055
:1028700040F08E32B9F436FC81C1232D2064322E13
:1028800019C036FE06C08AE0989E200D1124922EB3
:1028900011C0EAE02E9E200D1124222EF32DF062AD
:1028A0003F2E08C08C3621F4832D8068382E02C05C
:1028B000883641F4F70193FD859193FF81917F0163
:1028C0008111B3CF982F9F7D9554933028F40C5FDE
:1028D0001F4F9FE399830DC0833631F0833771F02A
:1028E000833509F059C021C0F801808189830E5FCA
:1028F0001F4F88248394912C530113C02801F2E0C8
:102900004F0E511CF801A080B18036FE03C0692D26
:1029100070E002C06FEF7FEFC5010E9417174C01F6
:102920008201F32DFF773F2E16C0280122E0420ED0
:10293000511CF801A080B18036FE03C0692D70E003
:1029400002C06FEF7FEFC5010E9405174C01F32D08
:10295000F0683F2E820133FC1BC0822D90E0881668
:102960009906B0F4B60180E290E00E9432172A94F2
:10297000F4CFF50137FC859137FE81915F01B601F7
:1029800090E00E94321721102A9421E0821A9108C7
:102990008114910471F7E8C0843611F0893641F54D
:1029A000F80137FE07C060817181828193810C5FDD
:1029B0001F4F08C060817181072E000C880B990B96
:1029C0000E5F1F4FF32DFF763F2E97FF09C09095A6
:1029D0008095709561957F4F8F4F9F4FF0683F2E88
:1029E0002AE030E0A3010E946E17882E861845C0A9
:1029F000853731F4232D2F7EB22E2AE030E025C01A
:102A0000932D997FB92E8F36C1F018F4883579F05F
:102A1000B5C0803719F0883721F0B0C0E92FE061E8
:102A2000BE2EB4FE0DC0FB2DF460BF2E09C034FED7
:102A30000AC0292F2660B22E06C028E030E005C06B
:102A400020E130E002C020E132E0F801B7FE07C02B
:102A500060817181828193810C5F1F4F06C060810C
:102A6000718180E090E00E5F1F4FA3010E946E17FE
:102A7000882E8618FB2DFF773F2E36FE0DC0232DA6
:102A80002E7FA22E891458F434FE0BC032FC09C0EC
:102A9000832D8E7EA82E05C0B82CA32C03C0B82C85
:102AA00001C0B92CA4FE0FC0FE01E80DF11D80810C
:102AB000803321F49A2D997EA92E09C0A2FE06C06A
:102AC000B394B39404C08A2D867809F0B394A3FC20
:102AD00011C0A0FE06C0B21488F4280C922C9B18DA
:102AE0000EC0B21460F4B60180E290E00E9432178A
:102AF000B394F7CFB21418F42B1802C0982C212CE1
:102B0000A4FE10C0B60180E390E00E943217A2FE3E
:102B100017C0A1FC03C088E790E002C088E590E000
:102B2000B6010CC08A2D867859F0A1FE02C08BE256
:102B300001C080E2A7FC8DE2B60190E00E9432174E
:102B4000891438F4B60180E390E00E9432179A9419
:102B5000F7CF8A94F301E80DF11D8081B60190E072
:102B60000E9432178110F5CF222009F442CEB6011F
:102B700080E290E00E9432172A94F6CFF601868117
:102B8000978102C08FEF9FEF2B96E2E10C940C1916
:102B90000F931F93CF93DF93869F8001879F100D24
:102BA000969F100D1124C8010E94E415EC010097B6
:102BB00029F0A80160E070E00E941017CE01DF91BB
:102BC000CF911F910F9108950F931F93CF93DF9390
:102BD0008230910510F482E090E0E091E104F09100
:102BE000E20420E030E0A0E0B0E0309719F140814D
:102BF00051810281138148175907C8F0841795073E
:102C000069F4109731F012960C93129713961C9357
:102C100027C00093E1041093E20422C0211531057E
:102C200019F04217530718F49A01BD01EF01DF01B3
:102C3000F801DBCF21153105F9F0281B390B2430C1
:102C4000310580F48A819B816115710521F0FB01BA
:102C50009383828304C09093E2048093E104FE0195
:102C6000329644C0FE01E20FF31F819391932250EC
:102C70003109398328833AC02091DF043091E00480
:102C8000232B41F420910601309107013093E00499
:102C90002093DF04209104013091050121153105B5
:102CA00041F42DB73EB74091080150910901241B12
:102CB000350BE091DF04F091E004E217F307A0F494
:102CC0002E1B3F0B2817390778F0AC014E5F5F4F82
:102CD0002417350748F04E0F5F1F5093E0044093D0
:102CE000DF048193919302C0E0E0F0E0CF01DF9137
:102CF000CF911F910F910895CF93DF93009709F41F
:102D000081C0FC01329713821282A091E104B0913C
:102D1000E204109781F420813181820F931F20916A
:102D2000DF043091E0042817390751F5F093E004EF
:102D3000E093DF0467C0ED0120E030E0CE17DF074D
:102D400040F44A815B819E0141155105F1F0EA0191
:102D5000F5CFD383C28340815181840F951FC8175B
:102D6000D90759F488819981840F951F0296918320
:102D700080838A819B81938382832115310529F485
:102D8000F093E204E093E1043DC0E901FB83EA83B0
:102D900049915991C40FD51FEC17FD0761F480814B
:102DA0009181840F951F0296E9019983888382811E
:102DB00093819B838A83E0E0F0E012968D919C9151
:102DC0001397009719F0FD01DC01F7CF8D919C91CD
:102DD00011979D012E5F3F4F820F931F2091DF04BB
:102DE0003091E0042817390769F4309729F41092DC
:102DF000E2041092E10402C013821282B093E00454
:102E0000A093DF04DF91CF910895FC0105906150FC
:102E100070400110D8F7809590958E0F9F1F0895F0
:102E2000DC0101C06D9341505040E0F70895FC0172
:102E30006150704001900110D8F7809590958E0FE9
:102E40009F1F0895DC01FC01672F71917723E1F743
:102E5000329704C07C916D9370836291AE17BF0767
:102E6000C8F308950F931F93CF93DF93FB01238142
:102E700021FD03C08FEF9FEF2CC022FF16C04681BB
:102E80005781248135814217530744F4A081B181D1
:102E90009D012F5F3F4F318320838C9326813781A3
:102EA0002F5F3F4F3783268314C08B01EC01FB015A
:102EB0000084F185E02D0995892BE1F6D80116965D
:102EC0008D919C911797019617969C938E931697C8
:102ED000CE01DF91CF911F910F910895FA01AA279A
:102EE000283051F1203181F1E8946F936E7F6E5F4D
:102EF0007F4F8F4F9F4FAF4FB1E03ED0B4E03CD0FB
:102F0000670F781F891F9A1FA11D680F791F8A1FDD
:102F1000911DA11D6A0F711D811D911DA11D20D044
:102F200009F468943F912AE0269F11243019305DFE
:102F30003193DEF6CF010895462F4770405D4193EF
:102F4000B3E00FD0C9F7F6CF462F4F70405D4A333C
:102F500018F0495D31FD4052419302D0A9F7EACF04
:102F6000B4E0A6959795879577956795BA95C9F733
:102F700000976105710508959B01AC010A2E069426
:102F80005795479537952795BA95C9F7620F731FDF
:102F9000841F951FA01D08950E940E1808F481E05B
:102FA0000895E89409C097FB3EF49095809570953C
:102FB00061957F4F8F4F9F4F9923A9F0F92F96E985
:102FC000BB279395F695879577956795B795F111FA
:102FD000F8CFFAF4BB0F11F460FF1BC06F5F7F4F97
:102FE0008F4F9F4F16C0882311F096E911C07723A9
:102FF00021F09EE8872F762F05C0662371F096E8B2
:10300000862F70E060E02AF09A95660F771F881F80
:10301000DAF7880F9695879597F90895990F000824
:10302000550FAA0BE0E8FEEF16161706E807F9079A
:10303000C0F012161306E407F50798F0621B730B35
:10304000840B950B39F40A2661F0232B242B252BB6
:1030500021F408950A2609F4A140A6958FEF811D59
:10306000811D08950E9445180C94B6180E94A81856
:1030700038F00E94AF1820F0952311F00C949F189F
:103080000C94A51811240C94EA180E94C71870F328
:10309000959FC1F3950F50E0551F629FF001729FFD
:1030A000BB27F00DB11D639FAA27F00DB11DAA1F0C
:1030B000649F6627B00DA11D661F829F2227B00D59
:1030C000A11D621F739FB00DA11D621F839FA00DE4
:1030D000611D221F749F3327A00D611D231F849F34
:1030E000600D211D822F762F6A2F11249F5750408B
:1030F0009AF0F1F088234AF0EE0FFF1FBB1F661F06
:10310000771F881F91505040A9F79E3F510580F0CE
:103110000C949F180C94EA185F3FE4F3983ED4F3A4
:10312000869577956795B795F795E7959F5FC1F772
:10313000FE2B880F911D9695879597F9089597F91D
:103140009F6780E870E060E008959FEF80EC08954D
:1031500000240A9416161706180609060895002476
:103160000A9412161306140605060895092E0394F0
:10317000000C11F4882352F0BB0F40F4BF2B11F464
:1031800060FF04C06F5F7F4F8F4F9F4F089557FDC3
:103190009058440F551F59F05F3F71F04795880FC5
:1031A00097FB991F61F09F3F79F08795089512165C
:1031B00013061406551FF2CF4695F1DF08C0161608
:1031C00017061806991FF1CF8695710561050894B9
:1031D0000895E894BB2766277727CB0197F90895D0
:1031E0002F923F924F925F926F927F928F929F9217
:1031F000AF92BF92CF92DF92EF92FF920F931F9305
:10320000CF93DF93CDB7DEB7CA1BDB0B0FB6F894B5
:10321000DEBF0FBECDBF09942A88398848885F84F5
:103220006E847D848C849B84AA84B984C884DF8066
:10323000EE80FD800C811B81AA81B981CE0FD11D4A
:103240000FB6F894DEBF0FBECDBFED010895505804
:10325000BB27AA270E943F190C94B6180E94A818F1
:1032600038F00E94AF1820F039F49F3F19F426F48B
:103270000C94A5180EF4E095E7FB0C949F18E92F29
:103280000E94C71858F3BA17620773078407950797
:1032900020F079F4A6F50C94E9180EF4E0950B2EC5
:1032A000BA2FA02D0B01B90190010C01CA01A00198
:1032B0001124FF27591B99F0593F50F4503E68F1F3
:1032C0001A16F040A22F232F342F4427585FF3CF34
:1032D000469537952795A795F0405395C9F77EF405
:1032E0001F16BA0B620B730B840BBAF09150A1F04E
:1032F000FF0FBB1F661F771F881FC2F70EC0BA0FD4
:10330000621F731F841F48F4879577956795B7955B
:10331000F7959E3F08F0B0CF9395880F08F0992756
:10332000EE0F9795879508950E94CF1888F09F57C4
:1033300098F0B92F9927B751B0F0E1F0660F771FD9
:10334000881F991F1AF0BA95C9F714C0B13091F0CF
:103350000E94E918B1E008950C94E918672F782FBE
:103360008827B85F39F0B93FCCF386957795679594
:10337000B395D9F73EF490958095709561957F4F00
:103380008F4F9F4F08950E940E1808F48FEF0895F5
:1033900097FB072E16F4009407D077FD09D00E9402
:1033A000041A07FC05D03EF4909581959F4F08952F
:1033B000709561957F4F0895A1E21A2EAA1BBB1B41
:1033C000FD010DC0AA1FBB1FEE1FFF1FA217B307F1
:1033D000E407F50720F0A21BB30BE40BF50B661F07
:1033E000771F881F991F1A9469F7609570958095CB
:1033F00090959B01AC01BD01CF010895EE0FFF1F19
:103400000590F491E02D0994AA1BBB1B51E107C064
:10341000AA1FBB1FA617B70710F0A61BB70B881F64
:10342000991F5A95A9F780959095BC01CD010895F3
:10343000A0E0B0E0EEE1FAE10C94F418EC010097A2
:1034400021F4CB010E94E415B4C0FC01E60FF71F84
:103450009C0122503109E217F30708F4A8C0D901F2
:103460000D911C91119706171707B0F00530110543
:1034700008F49BC0C80104978617970708F495C005
:1034800002501109061B170B019311936D937C9346
:10349000CF010E947C1689C05B01A01AB10A4C01C1
:1034A000800E911EA091E104B091E204612C712C78
:1034B000E12CF12C109709F446C08D919C91119745
:1034C000A815B905B1F56C0142E0C40ED11CCA14AF
:1034D000DB0478F14C018A189B08640142E0C40EB9
:1034E000D11C1296BC9012971396AC91B5E0CB16F6
:1034F000D10440F0B282A38391828082D9016D937E
:103500007C9309C00E5F1F4F800F911FF9019183BB
:103510008083EB2DFA2FE114F10431F0D7011396DB
:10352000FC93EE93129741C0F093E204E093E10420
:103530003CC06816790608F43C017D0112960D9096
:10354000BC91A02DB7CF8091DF049091E004881644
:103550009906E1F466167706C8F48091040190910B
:103560000501009741F48DB79EB740910801509135
:103570000901841B950BE817F907C8F4F093E004E0
:10358000E093DF04F901718360830FC0CB010E94D7
:10359000E4157C01009759F0A801BE010E94E31ACE
:1035A000CE010E947C16C70104C0CE0102C080E09B
:1035B00090E0CDB7DEB7EEE00C94101981E090E01A
:1035C000F8940C94FC1AFB01DC0102C001900D92EE
:1035D00041505040D8F70895FB01DC018D910190D6
:1035E00080190110D9F3990B0895FB01DC010190BA
:1035F0000D920020E1F7089511E0CEE3D1E004C080
:10360000FE010E94FE192196CF33D107C9F7F89425
:02361000FFCFEA
:103612006A016A010000E30480000000803FCDCC13
:10362200CC3D6F12833A95BFD6337D1D9026B3CE23
:10363200010CCDCCCC3D0AD7233C17B7D13877CC7F
:103642002B329595E6241FB14F0A0000204100005D
:10365200C84200401C4620BCBE4CCA1B0E5AAEC516
:103662009D74CECCCECCCECCCECCCECCCCCECCCE11
:10367200EE640000000001026B0198014E02C901D4
:10368200A701BB0122225C5C6208660C6E0A720D05
:103692007409006E756C6C004E614E00652D0074ED
:1036A2007275650066616C736500496E66696E6964
:1036B2007479006E6F64650063656E7472616C4E3E
:1036C200616D650054657374204C6F636174696F3A
:1036D2006E004461746554696D6500323031392F72
:1036E20030332F31362032303A3235007061636B1D
:1036F2006574004552524F52000D0A0064617461B4
:08370200007265747279000089
:107E0000112484B714BE81FFF0D085E080938100F7
:107E100082E08093C00088E18093C10086E0809377
:107E2000C20080E18093C4008EE0C9D0259A86E02C
:107E300020E33CEF91E0309385002093840096BBD3
:107E4000B09BFECF1D9AA8958150A9F7CC24DD24C4
:107E500088248394B5E0AB2EA1E19A2EF3E0BF2EE7
:107E6000A2D0813461F49FD0082FAFD0023811F036
:107E7000013811F484E001C083E08DD089C08234E0
:107E800011F484E103C0853419F485E0A6D080C0E4
:107E9000853579F488D0E82EFF2485D0082F10E0AE
:107EA000102F00270E291F29000F111F8ED06801E7
:107EB0006FC0863521F484E090D080E0DECF843638
:107EC00009F040C070D06FD0082F6DD080E0C81688
:107ED00080E7D80618F4F601B7BEE895C0E0D1E017
:107EE00062D089930C17E1F7F0E0CF16F0E7DF06D8
:107EF00018F0F601B7BEE89568D007B600FCFDCFD4
:107F0000A601A0E0B1E02C9130E011968C91119780
:107F100090E0982F8827822B932B1296FA010C0160
:107F200087BEE89511244E5F5F4FF1E0A038BF0790
:107F300051F7F601A7BEE89507B600FCFDCF97BE46
:107F4000E89526C08437B1F42ED02DD0F82E2BD052
:107F50003CD0F601EF2C8F010F5F1F4F84911BD097
:107F6000EA94F801C1F70894C11CD11CFA94CF0C13
:107F7000D11C0EC0853739F428D08EE10CD085E9AC
:107F80000AD08FE07ACF813511F488E018D01DD067
:107F900080E101D065CF982F8091C00085FFFCCF94
:107FA0009093C60008958091C00087FFFCCF809118
:107FB000C00084FD01C0A8958091C6000895E0E648
:107FC000F0E098E1908380830895EDDF803219F02E
:107FD00088E0F5DFFFCF84E1DECF1F93182FE3DFCA
:107FE0001150E9F7F2DF1F91089580E0E8DFEE27F6
:047FF000FF270994CA
:027FFE00040479
:0400000300007E007B
:00000001FF
