:100000000C943C010C9406030C94DF020C946401E4
:100010000C9464010C9464010C9464010C946401CC
:100020000C9464010C9464010C9464010C946401BC
:100030000C9464010C9464010C9464010C946401AC
:100040000C94DF070C9464010C9453030C942D035F
:100050000C9464010C9464010C9464010C9464018C
:100060000C9464010C94640150415F4D4158005060
:10007000415F484947480050415F4C4F570050414D
:100080005F4D494E0031362062697473003820623A
:100090006974730044697361626C6564006E5246F2
:1000A00032344C30312B006E524632344C303100F9
:1000B0003235304B42505300324D42505300314D97
:1000C00042505300496E76616C69642072657175A7
:1000D0006573740053656E643A4661696C656400CB
:1000E00053656E643A4F4B001112131415160A0B28
:1000F0000C0D0E0F000102030405535441545553D7
:100100000909203D203078253032782052585F444C
:10011000523D25782054585F44533D2578204D4169
:10012000585F52543D25782052585F505F4E4F3DE6
:1001300025782054585F46554C4C3D25780D0A00D3
:10014000504120506F77657209203D2025530D0ADC
:10015000007E0077006F006800435243204C656EBC
:1001600067746809203D2025530D0A0094008D0016
:1001700085004D6F64656C0909203D2025530D0AEB
:1001800000A7009D004461746120526174650920DC
:100190003D2025530D0A00BE00B800B00044594E62
:1001A00050442F4645415455524500434F4E464911
:1001B00047090052465F53455455500052465F432D
:1001C000480900454E5F52584144445200454E5F35
:1001D0004141090052585F50575F50302D3600544E
:1001E000585F41444452090052585F414444525FB1
:1001F00050322D350052585F414444525F50302DEB
:1002000031000000000800020100000304070000A4
:100210000000000000000D0A002530327800203078
:100220007800255309203D000D0A00203078253044
:10023000327800255309203D0000000000250028E9
:10024000002B0000000000240027002A0004040402
:10025000040404040402020202020203030303036F
:10026000030102040810204080010204081020014C
:100270000204081020004D0B11241FBECFEFD8E060
:10028000DEBFCDBF11E0A0E0B1E0E2ECF2E202C0DF
:1002900005900D92A234B107D9F722E0A2E4B1E0B3
:1002A00001C01D92A131B207E1F711E0CCE3D1E02A
:1002B00004C02197FE010E947E10CB33D107C9F7FD
:1002C0000E9429080C945F110C9400000895CF92AD
:1002D000DF92EF92FF920F931F93CF93DF936C0106
:1002E0007A018B01C0E0D0E0CE15DF0581F0D801A6
:1002F0006D918D01D601ED91FC910190F081E02D81
:10030000C6010995892B11F02196EECF7E01C70118
:10031000DF91CF911F910F91FF90EF90DF90CF90E1
:100320000895089580E090E00895FC01538D448D78
:10033000252F30E0842F90E0821B930B541710F090
:10034000CF96089501970895FC01918D828D98179D
:1003500061F0828DDF01A80FB11D5D968C91928DA9
:100360009F5F9F73928F90E008958FEF9FEF0895A6
:10037000FC01918D828D981731F0828DE80FF11D6F
:10038000858D90E008958FEF9FEF0895FC01918D8A
:10039000228D892F90E0805C9F4F821B91098F7383
:1003A000992708958DE491E00E94C60121E0892BF0
:1003B00009F420E0822F0895FC01848DDF01A80F4D
:1003C000B11DA35ABF4F2C91848D90E001968F737D
:1003D0009927848FA689B7892C93A089B1898C919C
:1003E000837080648C93938D848D981306C00288EB
:1003F000F389E02D80818F7D80830895EF92FF92B5
:100400000F931F93CF93DF93EC0181E0888F9B8D37
:100410008C8D981305C0E889F989808185FD26C0F7
:10042000F62E0B8D10E00F5F1F4F0F731127E02E7C
:100430008C8DE8120CC00FB607FCFACFE889F98959
:10044000808185FFF5CFCE010E94DC01F1CF8B8D3D
:10045000FE01E80FF11DE35AFF4FF0829FB7F894B9
:100460000B8FEA89FB89808180620AC09FB7F8946C
:10047000EE89FF896083E889F989808183708064CF
:1004800080839FBF81E090E0DF91CF911F910F911A
:10049000FF90EF900895CF93DF93EC01888D882330
:1004A000C9F0EA89FB89808185FD05C0A889B989E1
:1004B0008C9186FD0FC00FB607FCF5CF808185FFBC
:1004C000F2CFA889B9898C9185FFEDCFCE010E942A
:1004D000DC01E7CFDF91CF91089580E090E0892B98
:1004E00029F00E94D20181110C9400000895CF934D
:1004F000C82F682F8DE491E00E94FE018C2FCC0F55
:10050000990BCF9108950E944A110F931F93CF9397
:10051000DF93EC0188819981009729F02A813B8142
:100520002617370788F48B016F5F7F4F0E94841076
:10053000009761F0998388831B830A832C813D8116
:10054000232B11F4FC01108281E001C080E0DF91D7
:10055000CF911F910F910895CF93DF93EC01888184
:100560009981009711F00E94D50E198218821D8280
:100570001C821B821A82DF91CF910895EF92FF9225
:100580000F931F93CF93DF93EC017B018A01BA0194
:100590000E948502811104C0CE010E94AC0207C0F6
:1005A0001D830C83B701888199810E945811CE0167
:1005B000DF91CF911F910F91FF90EF9008951F92BF
:1005C0000F920FB60F9211242F933F934F935F9387
:1005D0006F937F938F939F93AF93BF93EF93FF930B
:1005E000E0910201F09103010995FF91EF91BF9114
:1005F000AF919F918F917F916F915F914F913F91BB
:100600002F910F900FBE0F901F9018951F920F9271
:100610000FB60F9211242F933F934F935F936F93D5
:100620007F938F939F93AF93BF93EF93FF93E0914B
:100630000001F09101010995FF91EF91BF91AF91F8
:100640009F918F917F916F915F914F913F912F91EA
:100650000F900FBE0F901F9018951F920F920FB61C
:100660000F9211242F933F934F935F936F937F9338
:100670008F939F93AF93BF93EF93FF938DE491E09C
:100680000E94DC01FF91EF91BF91AF919F918F91FB
:100690007F916F915F914F913F912F910F900FBE7E
:1006A0000F901F9018951F920F920FB60F92112462
:1006B0002F938F939F93EF93FF93E0915D01F091C0
:1006C0005E018081E0916301F091640182FD12C0BE
:1006D0009081809166018F5F8F73209167018217EF
:1006E00051F0E0916601F0E0E35BFE4F958F80935F
:1006F000660101C08081FF91EF919F918F912F91B1
:100700000F900FBE0F901F9018958EBD00000DB476
:1007100007FEFDCF8EB508958F929F92AF92BF9244
:10072000CF92DF92EF92FF920F931F93CF93DF93BD
:10073000CDB7DEB7C355D1090FB6F894DEBF0FBEF3
:10074000CDBF60E787E00E940107082F0071182FD6
:10075000107485FF07C080EE90E00E94890581E05B
:1007600080934801002339F084ED90E00E948905D0
:1007700081E0809347011123A1F087E291E00E947C
:1007800077058DE391E00E9477051091F10101E07A
:10079000111101C000E08091F201811108C0101B0D
:1007A00007C087E10E941C0680FD49C1E6CF10E02A
:1007B0000E94190681E60E948503002331F08FEF25
:1007C0000E94850364968FAF6497112329F08FEF01
:1007D0000E9485031150F9CF0E94160660E787E05A
:1007E0000E9401076496FFAC64972F2D30E040E033
:1007F00050E019A28E010F5D1F4F8AE0882E912CC8
:10080000A12CB12CCA01B901A50194010E945C1070
:10081000605DF80162938F01211531054105510595
:1008200089F7CF010E9477058DE391E00E9477055B
:10083000F4E6FF12F4C08FB7F894C0904901D0904D
:100840004A01E0904B01F0904C018FBF83E480930C
:100850007C0080917A00806480937A0080917A0095
:1008600086FDFCCF809178002091790023961FAE01
:100870001EAE239725961FAE1EAE259727961FAE58
:100880001EAE279790E04AE08E010F5F1F4FB80120
:10089000922B0E94B50BF80101900020E9F73197E7
:1008A000AF01401B510BB801CE018F5B9F4F0E94DF
:1008B000BE0229961FAE1EAE29972B961FAE1EAE06
:1008C0002B972D961FAE1EAE2D972AE0A801C701CB
:1008D000B6010E94930BF80101900020E9F73197CF
:1008E000AF01401B510BB801CE01895B9F4F0E94A5
:1008F000BE021A8219821C821B821E821D822996C8
:100900006EAD7FAD29976115710539F02D964EAD0D
:100910005FAD2D97C8010E94BE02ED80FE808FEF73
:10092000E81AF80AB701C8010E948502882309F471
:1009300082C029813A818D819E8160E471E0820FBD
:10094000931F0E945811FE82ED822796EEACFFACF9
:1009500027972396CEACDFAC2397C114D10409F4BA
:1009600066C0E114F104B1F08D819E81E80EF91E9C
:10097000B701C8010E948502882309F458C0298163
:100980003A818D819E81B601820F931F0E9458117A
:10099000FE82ED822F961FAE1EAE2F9761961FAE80
:1009A0001EAE619763961FAE1EAE639769817A8112
:1009B0006115710539F04D815E81CE01835B9F4FDA
:1009C0000E94BE0289819A810E94D50E29968EAD21
:1009D0009FAD29970E94D50E23968EAD9FAD23978C
:1009E0000E94D50E2F96EEACFFAC2F97B701C80131
:1009F0000E945811C7010E94D50E0E94190689EA6B
:100A00000E948503780111E2115031F0F7018191C4
:100A10007F010E948503F8CF0E94160610C084EC67
:100A200090E00E94890583E00E94AB0708C0C801DE
:100A30000E94AC02AFCFC8010E94AC0286CFCD5A53
:100A4000DF4F0FB6F894DEBF0FBECDBFDF91CF9161
:100A50001F910F91FF90EF90DF90CF90BF90AF90DC
:100A60009F908F9008953FB7F894809103029091E2
:100A70000402A0910502B091060226B5A89B05C00C
:100A80002F3F19F00196A11DB11D3FBFBA2FA92F0D
:100A9000982F8827820F911DA11DB11DBC01CD018A
:100AA00042E0660F771F881F991F4A95D1F7089576
:100AB00090E0FC01EF59FD4F2491FC01E35BFD4FF9
:100AC0008491882399F090E0880F991FFC01ED5BD9
:100AD000FD4FA591B491FC01E75CFD4F8591949188
:100AE0008FB7F894EC91E22BEC938FBF08950097A9
:100AF00069F0FC0101900020E9F73197AF01481B34
:100B0000590BBC018DE491E00C94670180E090E00A
:100B100008950F931F93CF93DF938C01C0E0D0E033
:100B2000F801EC0FFD1F6491662341F08DE491E024
:100B30000E94FE01892B11F02196F2CF8DE391E006
:100B40000E9477058C0F9D1FDF91CF911F910F9110
:100B5000089590E0FC01EE5FFD4F2491FC01EF59F8
:100B6000FD4F3491FC01E35BFD4FE491EE2309F46A
:100B70003CC0222339F1233091F038F42130A9F020
:100B8000223001F584B58F7D12C0273091F02830D6
:100B9000A1F02430B9F4809180008F7D03C0809152
:100BA00080008F77809380000DC084B58F7784BDDF
:100BB00009C08091B0008F7703C08091B0008F7D15
:100BC0008093B000F0E0EE0FFF1FE75CFD4FA591B2
:100BD000B4919FB7F894611104C08C91309538237B
:100BE00002C0EC913E2B3C939FBF08959CB59F7D26
:100BF0009CBD9CB5937F9CBD9CB59C7F9CBD9DB5C9
:100C000091609DBD682F8091EC010E94A9058091A3
:100C1000FE019091FF018230910538F0880F991FF5
:100C2000880F991F05970197F1F7089581E00C94BB
:100C3000F60580E00C94F605CF93C82F0E941906A4
:100C40008C2F8F710E9485038FEF0E948503C82F20
:100C50000E9416068C2FCF910895FF920F931F9339
:100C6000CF93DF93C62FD42F9F938F9383E392E08C
:100C70009F938F930E941A0CDC0F0F900F900F9090
:100C80000F900BE212E0CD1791F0FF24F394FC0ECD
:100C90008C2F0E941C061F928F931F930F930E940C
:100CA0001A0C0F900F900F900F90CF2DECCF88E281
:100CB00092E09F938F930E941A0C0F900F90DF91F8
:100CC000CF911F910F91FF9008952F923F924F92D5
:100CD0005F926F927F928F929F92AF92BF92CF92CC
:100CE000DF92EF92FF920F931F93CF93DF931F92A8
:100CF000CDB7DEB7962E342E4DB65EB69F938F934A
:100D000082E292E09F938F930E941A0C390C0F900D
:100D10000F900F900F908EE1C82E82E0D82E99E1AF
:100D2000A92E92E0B92E931409F44AC06DB67EB68E
:100D30002090F801022D10E08DB79EB7801B910B1B
:100D40000FB6F8949EBF0FBE8DBFEDB7FEB73196BC
:100D50007F01F1E0F90DF9830E941906892D8F7149
:100D60000E9485034701222041F08FEF0E948503F6
:100D7000F40181934F012A94F6CF0E941606DF9268
:100D8000CF920E941A0C0E0D1F1D0F900F90015054
:100D900011090E151F0568F0F80180811F928F93CD
:100DA000BF92AF920E941A0C0F900F900F900F906D
:100DB000EECF0FB6F8947EBE0FBE6DBE9980B3CF56
:100DC00086E192E09F938F930E941A0C0F900F90F0
:100DD0000FB6F8945EBE0FBE4DBE0F90DF91CF915F
:100DE0001F910F91FF90EF90DF90CF90BF90AF9049
:100DF0009F908F907F906F905F904F903F902F903B
:100E00000895CF93DF93C82FD62F0E9419068C2FF9
:100E10008F7180620E948503C82F8D2F0E948503E9
:100E20000E9416068C2FDF91CF9108950F931F9388
:100E3000CF938C0186E00E941C06C82FC77D02302C
:100E4000110531F4C0628BE990E0A0E0B0E00DC084
:100E50000130110529F085E590E0A0E0B0E005C083
:100E6000C86081E490E0A0E0B0E08093FA01909344
:100E7000FB01A093FC01B093FD016C2F86E00E9462
:100E8000010786E00E941C0691E0C81390E0892FBC
:100E9000CF911F910F910895EF92FF920F931F939F
:100EA000CF93DF93182F7B01C42F0E941906812F47
:100EB0008F7180620E948503D82F8701CC2339F07F
:100EC000F80181918F010E948503C150F7CF0E94E4
:100ED00016068D2FDF91CF911F910F91FF90EF900C
:100EE00008958F929F92AF92BF92CF92DF92EF922E
:100EF000FF926B017C010E9433054B015C01C11420
:100F0000D104E104F104F1F00E943305DC01CB01CE
:100F100088199909AA09BB09883E9340A105B10522
:100F200070F321E0C21AD108E108F10888EE880EBA
:100F300083E0981EA11CB11CC114D104E104F1048A
:100F400019F7DDCFFF90EF90DF90CF90BF90AF907B
:100F50009F908F9008951F93CF93DF93182FC0E039
:100F6000C117C1F0D091040161E08D2F0E94A90545
:100F700064E670E080E090E00E94710760E08D2FF1
:100F80000E94A90564E670E080E090E00E9471078D
:100F9000CF5FE6CFDF91CF911F91089580E00E944F
:100FA0001C0681FD0BC0682F626080E00E94010773
:100FB00065E070E080E090E00C94710708951F9266
:100FC0000F920FB60F9211242F933F938F939F93FD
:100FD000AF93BF938091490190914A01A0914B0139
:100FE000B0914C013091020223E0230F2D3720F401
:100FF0000196A11DB11D05C026E8230F0296A11D73
:10100000B11D209302028093490190934A01A0935D
:101010004B01B0934C018091030290910402A09186
:101020000502B09106020196A11DB11D8093030235
:1010300090930402A0930502B0930602BF91AF9172
:101040009F918F913F912F910F900FBE0F901F9006
:101050001895789484B5826084BD84B5816084BD20
:1010600085B5826085BD85B5816085BD80916E0046
:10107000816080936E001092810080918100826077
:1010800080938100809181008160809381008091B4
:1010900080008160809380008091B10084608093A3
:1010A000B1008091B00081608093B00080917A009F
:1010B000846080937A0080917A00826080937A00C5
:1010C00080917A00816080937A0080917A008068B4
:1010D00080937A001092C100E0915D01F0915E0171
:1010E00082E08083E0915901F0915A011082E091F1
:1010F0005B01F0915C0180E1808310926501E091D9
:101100006101F091620186E08083E0915F01F091DE
:101110006001808180618083E0915F01F0916001D6
:10112000808188608083E0915F01F091600180811F
:1011300080688083E0915F01F091600180818F7D04
:10114000808360E070E087E792E00E94CF0B8AE046
:10115000809304010E94580560E08AE00E94A9057E
:10116000C7E5D2E00BE612E08091EA019091EB0135
:101170002091EC013091ED018217930711F00E944C
:1011800058058091EC019091ED012091EA01309198
:10119000EB012817390711F00E945805FFB6F894A3
:1011A00080914201811123C0FE018491F8012491B4
:1011B000E82FF0E0EE0FFF1FED5BFD4FA591B4911E
:1011C0009C91822F892321F461E08AE00E94A90585
:1011D0008AE00E9458058CB580618CBD8CB5806416
:1011E0008CBD8DE00E9458058BE00E9458058091CF
:1011F00042018F5F80934201FFBE8091EA0190918E
:10120000EB012091EC013091ED018217930719F069
:1012100060E00E94A90581E00E94F60565E070E0AB
:1012200080E090E00E9471076CE080E00E9401077E
:101230006FE584E00E94010782E090E00E941607BB
:10124000882319F081E08093F00186E00E941C065B
:10125000F82E80E090E00E9416070E94190680E5B3
:101260000E94850383E70E9485030E94160660E0C2
:101270008DE10E94010760E08CE10E94010710925D
:10128000F20160E787E00E9401076CE485E00E94BC
:1012900001070E94190682EE0E9485030E9416062D
:1012A0000E94190681EE0E9485030E9416060E9484
:1012B000CE0780E00E941C06682F6E7F80E00E94AF
:1012C00001078FEF8F0D8E3F20F083E00E94AB0768
:1012D0004BCF86E00E941C06682F676086E00E9464
:1012E000010782E090E00E9416078DE10E941C0633
:1012F000682F66608DE10E9401078CE10E941C0648
:10130000682F63608CE10E940107C1E0C093F20185
:101310008DE10E941C06682F64608DE10E94010728
:101320008CE10E941C06682F6F638CE10E9401070C
:10133000C093F2014091F80160E171E08AE00E94FF
:101340004C074091F80160E171E080E10E944C0798
:101350006091F10181E10E940107EFEEF0E08491DC
:101360004091F8016BE071E00E944C07E9EEF0E07B
:1013700084916091F1010E94010782E00E941C06A5
:10138000E5EFF0E0E49161E070E001C0660FEA95FE
:10139000EAF7682B82E00E9401070E94CE0780E0F6
:1013A0000E941C06682F616080E00E94010760E7D0
:1013B00087E00E9401078091EA019091EB01209162
:1013C000EC013091ED018217930719F061E00E9462
:1013D000A9058091F301882341F04091F80163EF62
:1013E00071E08AE00E944C0712C082E00E941C0655
:1013F000E4EFF0E0E49121E030E001C0220FEA9553
:10140000EAF72095622F682382E00E9401078DE1B0
:101410000E941C0681FF07C00E94190681EE0E94EF
:1014200085030E9416060E94190689EA0E94850318
:10143000809143010E948503809144010E948503AD
:10144000809145010E948503809146010E94850399
:101450000E9416068091430190914401A09145019C
:10146000B09146010196A11DB11D80934301909357
:101470004401A0934501B09346010E9419068FEFE5
:101480000E948503C82F0E9416068C2F90E02C2FF7
:1014900021701F922F9395958795877099279F9319
:1014A0008F93C4FB882780F91F928F93C5FB8827F1
:1014B00080F91F928F93C6FB882780F91F928F9324
:1014C0001F92CF938AEF90E09F938F930E941A0C04
:1014D00042E06AE085EF91E00E94650644E06CE03E
:1014E00088EE91E00E942D0641E060E18FED91E0F1
:1014F0000E94650646E061E184ED91E00E942D06C0
:1015000041E061E08DEC91E00E942D0641E062E057
:1015100083EC91E00E942D0641E065E08CEB91E0C8
:101520000E942D0641E066E083EB91E00E942D06CB
:1015300041E060E08BEA91E00E942D0642E06CE120
:101540008DE991E00E942D0686E00E941C068872BB
:101550002DB73EB7225F3F4F0FB6F8943EBF0FBE88
:101560002DBF803241F021E090E0883009F020E08A
:10157000E22FF92F02C0E2E0F0E0EE0FFF1FE95684
:10158000FE4F859194919F938F9385E891E09F936F
:101590008F930E941A0CE091F001F0E0EE0FFF1F14
:1015A000EF57FE4F859194919F938F9382E791E03F
:1015B0009F938F930E941A0C80E00E941C06C82FF4
:1015C00081E00E941C06EDB7FEB738960FB6F8947E
:1015D000FEBF0FBEEDBFC3FD02C0882329F0C2FDD0
:1015E00006C0E1E0F0E005C0E0E0F0E002C0E2E0CB
:1015F000F0E0EE0FFF1FE459FE4F859194919F9309
:101600008F9389E591E09F938F930E941A0C86E057
:101610000E941C068670E82FF0E0EF5AFE4F85917D
:1016200094919F938F9380E491E09F938F930E9476
:101630001A0C62E370E080E090E00E9471078CE891
:1016400093E09093010180930001809169008C7F69
:1016500080936900E89A82E00E94AB072DB73EB7FD
:10166000285F3F4F0FB6F8943EBF0FBE2DBF80914D
:101670004801882331F081E00E94AB0710924801B5
:1016800009C080914701882329F083E00E94AB07BD
:10169000109247010E946D02EACFEDE4F1E013825F
:1016A000128288EE93E0A0E0B0E084839583A68365
:1016B000B78389E191E09183808385EC90E0958701
:1016C000848784EC90E09787868780EC90E0918B0C
:1016D000808B81EC90E0938B828B82EC90E0958BF9
:1016E000848B86EC90E0978B868B118E128E138EF6
:1016F000148EEAEEF1E087E090E09183808388E049
:1017000090E093838283168280E28783108685E04F
:10171000868785E090E0A0E0B0E0848B958BA68B77
:10172000B78B11860895BB27FA01A62F62177105A2
:1017300081059105330B30FB66F0AA27660F771FF2
:10174000881F991FAA1FA21710F0A21B639538507B
:10175000A9F7A05DAA3308F0A95DA19336F7B111EE
:10176000B1931082CA010C947B0FBB27FB01552754
:10177000AA27880F991FAA1FA41710F0A41B8395EE
:101780005051B9F7A05DAA3308F0A95DA193009765
:1017900079F7B111B1931192CB010C947B0F0F9398
:1017A0001F93CF93DF93009731F46115710519F4FE
:1017B00080E090E03AC08B01EC016EE070E081E0E7
:1017C00090E00E94210EFC01892B91F380E8838335
:1017D0000115110571F01387028781E883838091D9
:1017E000070290910802892B21F4F0930802E093FC
:1017F00007022097C9F0D187C087838182608383E5
:101800008091090290910A02892B71F4F0930A02E7
:10181000E093090280910B0290910C02892B21F434
:10182000F0930C02E0930B02CF01DF91CF911F9157
:101830000F910895A0E0B0E0E0E2FCE00C943310DA
:10184000AE01495F5F4FDA016D917D91AD0107E017
:1018500012E0F80182819381DC0113962C91139799
:10186000286013962C930E94400CD8011296ED919B
:10187000FC9113972381277F2383E4E00C944F107E
:10188000ABE0B0E0E6E4FCE00C9425106C017B01D9
:101890008A01FC0117821682838181FFCCC1CE01AF
:1018A00001963C01F6019381F70193FD859193FF29
:1018B00081917F01882309F4BAC1853239F493FDFF
:1018C000859193FF81917F01853229F4B60190E0E3
:1018D0000E948B0FE7CF912C212C312CFFE1F315C7
:1018E000D8F08B3279F038F4803279F08332A1F479
:1018F000232D20611DC08D3261F0803369F4232DCA
:10190000216016C0832D8260382EE32DE4603E2EC8
:101910002AC0F32DF8601DC037FC2DC020ED280F24
:101920002A3040F08E32B9F436FC81C1232D206478
:10193000322E19C036FE06C08AE0989E200D112472
:10194000922E11C0EAE02E9E200D1124222EF32D9E
:10195000F0623F2E08C08C3621F4832D8068382E2B
:1019600002C0883641F4F70193FD859193FF819180
:101970007F018111B3CF982F9F7D9554933028F428
:101980000C5F1F4F9FE399830DC0833631F083377F
:1019900071F0833509F059C021C0F8018081898335
:1019A0000E5F1F4F88248394912C530113C028018C
:1019B000F2E04F0E511CF801A080B18036FE03C04A
:1019C000692D70E002C06FEF7FEFC5010E94700FBC
:1019D0004C018201F32DFF773F2E16C0280122E033
:1019E000420E511CF801A080B18036FE03C0692D63
:1019F00070E002C06FEF7FEFC5010E945E0F4C01E7
:101A0000F32DF0683F2E820133FC1BC0822D90E045
:101A100088169906B0F4B60180E290E00E948B0F20
:101A20002A94F4CFF50137FC859137FE81915F014F
:101A3000B60190E00E948B0F21102A9421E0821AB7
:101A400091088114910471F7E8C0843611F0893649
:101A500041F5F80137FE07C0608171818281938171
:101A60000C5F1F4F08C060817181072E000C880B2E
:101A7000990B0E5F1F4FF32DFF763F2E97FF09C086
:101A800090958095709561957F4F8F4F9F4FF0682F
:101A90003F2E2AE030E0A3010E94C70F882E86184F
:101AA00045C0853731F4232D2F7EB22E2AE030E059
:101AB00025C0932D997FB92E8F36C1F018F4883543
:101AC00079F0B5C0803719F0883721F0B0C0E92F20
:101AD000E061BE2EB4FE0DC0FB2DF460BF2E09C028
:101AE00034FE0AC0292F2660B22E06C028E030E05E
:101AF00005C020E130E002C020E132E0F801B7FE8D
:101B000007C060817181828193810C5F1F4F06C085
:101B10006081718180E090E00E5F1F4FA3010E9401
:101B2000C70F882E8618FB2DFF773F2E36FE0DC07F
:101B3000232D2E7FA22E891458F434FE0BC032FCC4
:101B400009C0832D8E7EA82E05C0B82CA32C03C0FF
:101B5000B82C01C0B92CA4FE0FC0FE01E80DF11D88
:101B60008081803321F49A2D997EA92E09C0A2FE8E
:101B700006C0B394B39404C08A2D867809F0B39458
:101B8000A3FC11C0A0FE06C0B21488F4280C922C4D
:101B90009B180EC0B21460F4B60180E290E00E947F
:101BA0008B0FB394F7CFB21418F42B1802C0982CF3
:101BB000212CA4FE10C0B60180E390E00E948B0FA0
:101BC000A2FE17C0A1FC03C088E790E002C088E530
:101BD00090E0B6010CC08A2D867859F0A1FE02C0B3
:101BE0008BE201C080E2A7FC8DE2B60190E00E948A
:101BF0008B0F891438F4B60180E390E00E948B0FBC
:101C00009A94F7CF8A94F301E80DF11D8081B60113
:101C100090E00E948B0F8110F5CF222009F442CE74
:101C2000B60180E290E00E948B0F2A94F6CFF60175
:101C30008681978102C08FEF9FEF2B96E2E10C9493
:101C400041100F931F93CF93DF93869F8001879F4F
:101C5000100D969F100D1124C8010E943D0EEC013D
:101C6000009729F0A80160E070E00E94690FCE01A2
:101C7000DF91CF911F910F9108950F931F93CF93F1
:101C8000DF938230910510F482E090E0E0910F0242
:101C9000F091100220E030E0A0E0B0E0309719F1C0
:101CA000408151810281138148175907C8F0841778
:101CB000950769F4109731F012960C9312971396CA
:101CC0001C9327C000930F021093100222C021150D
:101CD000310519F04217530718F49A01BD01EF01BD
:101CE000DF01F801DBCF21153105F9F0281B390B95
:101CF0002430310580F48A819B816115710521F0C2
:101D0000FB019383828304C09093100280930F029F
:101D1000FE01329644C0FE01E20FF31F81939193BE
:101D200022503109398328833AC020910D02309125
:101D30000E02232B41F420910701309108013093CA
:101D40000E0220930D02209105013091060121150C
:101D5000310541F42DB73EB74091090150910A0178
:101D6000241B350BE0910D02F0910E02E217F307F0
:101D7000A0F42E1B3F0B2817390778F0AC014E5FFB
:101D80005F4F2417350748F04E0F5F1F50930E0228
:101D900040930D028193919302C0E0E0F0E0CF0107
:101DA000DF91CF911F910F910895CF93DF9300970B
:101DB00009F481C0FC01329713821282A0910F02B4
:101DC000B0911002109781F420813181820F931F0E
:101DD00020910D0230910E022817390751F5F0932A
:101DE0000E02E0930D0267C0ED0120E030E0CE1757
:101DF000DF0740F44A815B819E0141155105F1F0F6
:101E0000EA01F5CFD383C28340815181840F951FAE
:101E1000C817D90759F488819981840F951F0296B4
:101E2000918380838A819B819383828321153105ED
:101E300029F4F0931002E0930F023DC0E901FB8307
:101E4000EA8349915991C40FD51FEC17FD0761F43E
:101E500080819181840F951F0296E901998388837F
:101E6000828193819B838A83E0E0F0E012968D91DA
:101E70009C911397009719F0FD01DC01F7CF8D912C
:101E80009C9111979D012E5F3F4F820F931F2091D0
:101E90000D0230910E022817390769F4309729F4A2
:101EA0001092100210920F0202C013821282B0939D
:101EB0000E02A0930D02DF91CF910895FC010590D1
:101EC000615070400110D8F7809590958E0F9F1F3C
:101ED0000895DC0101C06D9341505040E0F7089532
:101EE000FC016150704001900110D8F780959095E9
:101EF0008E0F9F1F0895DC01FC01672F71917723DE
:101F0000E1F7329704C07C916D9370836291AE17B4
:101F1000BF07C8F308950F931F93CF93DF93FB017F
:101F2000238121FD03C08FEF9FEF2CC022FF16C03D
:101F300046815781248135814217530744F4A0819B
:101F4000B1819D012F5F3F4F318320838C93268188
:101F500037812F5F3F4F3783268314C08B01EC01FD
:101F6000FB010084F185E02D0995892BE1F6D8016C
:101F700016968D919C911797019617969C938E9328
:101F80001697CE01DF91CF911F910F910895FA011D
:101F9000AA27283051F1203181F1E8946F936E7FA8
:101FA0006E5F7F4F8F4F9F4FAF4FB1E03ED0B4E099
:101FB0003CD0670F781F891F9A1FA11D680F791FDA
:101FC0008A1F911DA11D6A0F711D811D911DA11DEB
:101FD00020D009F468943F912AE0269F11243019FB
:101FE000305D3193DEF6CF010895462F4770405D96
:101FF0004193B3E00FD0C9F7F6CF462F4F70405D45
:102000004A3318F0495D31FD4052419302D0A9F79F
:10201000EACFB4E0A6959795879577956795BA9599
:10202000C9F700976105710508959B01AC010A2E5F
:1020300006945795479537952795BA95C9F7620F36
:10204000731F841F951FA01D08952F923F924F92DA
:102050005F926F927F928F929F92AF92BF92CF9238
:10206000DF92EF92FF920F931F93CF93DF93CDB741
:10207000DEB7CA1BDB0B0FB6F894DEBF0FBECDBFB9
:1020800009942A88398848885F846E847D848C848A
:102090009B84AA84B984C884DF80EE80FD800C8193
:1020A0001B81AA81B981CE0FD11D0FB6F894DEBF76
:1020B0000FBECDBFED010895A1E21A2EAA1BBB1BD6
:1020C000FD010DC0AA1FBB1FEE1FFF1FA217B30704
:1020D000E407F50720F0A21BB30BE40BF50B661F1A
:1020E000771F881F991F1A9469F7609570958095DE
:1020F00090959B01AC01BD01CF010895EE0FFF1F2C
:102100000590F491E02D0994A0E0B0E0EAE8F0E158
:102110000C942910EC01009721F4CB010E943D0E94
:10212000B4C0FC01E60FF71F9C0122503109E217F1
:10213000F30708F4A8C0D9010D911C911197061757
:102140001707B0F00530110508F49BC0C8010497CB
:102150008617970708F495C002501109061B170B44
:10216000019311936D937C93CF010E94D50E89C08A
:102170005B01A01AB10A4C01800E911EA0910F02C2
:10218000B0911002612C712CE12CF12C109709F404
:1021900046C08D919C911197A815B905B1F56C01B8
:1021A00042E0C40ED11CCA14DB0478F14C018A1839
:1021B0009B08640142E0C40ED11C1296BC90129799
:1021C0001396AC91B5E0CB16D10440F0B282A38354
:1021D00091828082D9016D937C9309C00E5F1F4F5D
:1021E000800F911FF90191838083EB2DFA2FE11469
:1021F000F10431F0D7011396FC93EE93129741C08E
:10220000F0931002E0930F023CC06816790608F4C0
:102210003C017D0112960D90BC91A02DB7CF80910D
:102220000D0290910E0288169906E1F46616770663
:10223000C8F48091050190910601009741F48DB793
:102240009EB74091090150910A01841B950BE81734
:10225000F907C8F4F0930E02E0930D02F9017183BF
:1022600060830FC0CB010E943D0E7C01009759F0A6
:10227000A801BE010E944F11CE010E94D50EC701D8
:1022800004C0CE0102C080E090E0CDB7DEB7EEE042
:102290000C94451081E090E0F8940C945F11FB01E0
:1022A000DC0102C001900D9241505040D8F70895D2
:1022B000FB01DC0101900D920020E1F70895F894F4
:0222C000FFCF4E
:1022C200660166010A000011028000CCCECCCEEE7F
:1022D200CECCCECCCE00000000FE01670195014BB2
:1022E20002C601A401B8016461746120726571754E
:1022F200657374207265636569766564000D0A0012
:022302002600B3
:107800000C94343C0C94513C0C94513C0C94513CE1
:107810000C94513C0C94513C0C94513C0C94513CB4
:107820000C94513C0C94513C0C94513C0C94513CA4
:107830000C94513C0C94513C0C94513C0C94513C94
:107840000C94513C0C94513C0C94513C0C94513C84
:107850000C94513C0C94513C0C94513C0C94513C74
:107860000C94513C0C94513C11241FBECFEFD8E036
:10787000DEBFCDBF11E0A0E0B1E0ECE9FFE702C060
:1078800005900D92A230B107D9F712E0A2E0B1E065
:1078900001C01D92AD30B107E1F70E942D3D0C945F
:1078A000CC3F0C94003C982F959595959595959582
:1078B000905D8F708A307CF0282F295A8091C0000B
:1078C00085FFFCCF9093C6008091C00085FFFCCF60
:1078D0002093C6000895282F205DF0CF982F809127
:1078E000C00085FFFCCF9093C6000895EF92FF92F1
:1078F0000F931F93EE24FF2487018091C00087FD22
:1079000017C00894E11CF11C011D111D81E4E8164B
:1079100082E4F8068FE0080780E0180770F3E09132
:107920000401F091050109958091C00087FFE9CF1E
:107930008091C6001F910F91FF90EF9008950E94D3
:10794000763C982F8091C00085FFFCCF9093C600B5
:1079500091362CF490330CF09053892F089597555D
:10796000892F08951F930E949F3C182F0E949F3CCF
:107970001295107F810F1F9108951F93182F882350
:1079800021F00E94763C1150E1F71F9108951F935A
:10799000182F0E94763C803249F0809103018F5F5E
:1079A000809303018530C1F01F9108958091C0003C
:1079B00085FFFCCF84E18093C6008091C00085FFE5
:1079C000FCCF1093C6008091C00085FFFCCF80E102
:1079D0008093C6001F910895E0910401F091050184
:1079E00009951F9108950E94763C803241F0809164
:1079F00003018F5F80930301853081F008958091AA
:107A0000C00085FFFCCF84E18093C6008091C00058
:107A100085FFFCCF80E18093C6000895E0910401CA
:107A2000F09105010995089540E951E08823A1F0FE
:107A30002D9A28EE33E0FA013197F1F721503040CA
:107A4000D1F72D9828EE33E0FA013197F1F7215064
:107A50003040D1F7815061F708953F924F925F9285
:107A60006F927F928F929F92AF92BF92CF92DF924E
:107A7000EF92FF920F931F93CF93DF93000080E16B
:107A80008093C4001092C50088E18093C10086E015
:107A90008093C2005098589A259A81E00E94143D24
:107AA00024E1F22E9EE1E92E85E9D82E0FE0C02ECA
:107AB00010E1B12EAA24A394B1E49B2EA6E58A2E50
:107AC000F2E57F2EE0E26E2E79E4572E63E5462E36
:107AD00050E5352E0E94763C8033B1F18133B9F107
:107AE000803409F46FC0813409F476C0823409F41B
:107AF00085C0853409F488C0803531F1823521F1A3
:107B0000813511F1853509F485C0863509F48DC0BC
:107B1000843609F496C0843709F403C1853709F423
:107B200072C1863709F466C0809103018F5F80932C
:107B30000301853079F6E0910401F0910501099582
:107B40000E94763C803351F60E94F33CC3CF0E94E2
:107B5000763C803249F78091C00085FFFCCFF092DF
:107B6000C6008091C00085FFFCCF9092C600809136
:107B7000C00085FFFCCF8092C6008091C00085FFC9
:107B8000FCCF7092C6008091C00085FFFCCF609250
:107B9000C6008091C00085FFFCCF5092C600809146
:107BA000C00085FFFCCF4092C6008091C00085FFD9
:107BB000FCCF3092C6008091C00085FFFCCFB09210
:107BC000C60088CF0E94763C863808F4BDCF0E945C
:107BD000763C0E94F33C7ECF0E94763C803809F4CC
:107BE0009CC0813809F40BC1823809F43CC1883942
:107BF00009F48FC080E00E94C73C6CCF84E10E94F2
:107C0000BD3C0E94F33C66CF85E00E94BD3C0E94D3
:107C1000F33C60CF0E94763C809306010E94763C44
:107C2000809307010E94F33C55CF0E94763C80333D
:107C300009F41DC183E00E94BD3C80E00E94C73C66
:107C400049CF0E94763C809309020E94763C809343
:107C5000080280910C028E7F80930C020E94763C79
:107C6000853409F415C18091080290910902892B8D
:107C700089F000E010E00E94763CF801E85FFE4FDA
:107C800080830F5F1F4F80910802909109020817AF
:107C9000190788F30E94763C803209F045CF809125
:107CA0000C0280FF01C16091060170910701660F0F
:107CB000771F7093070160930601A0910802B091AD
:107CC00009021097C9F0E8E0F1E09B01AD014E0F09
:107CD0005F1FF999FECF32BD21BD819180BDFA9A17
:107CE000F99A2F5F3F4FE417F50799F76A0F7B1F4B
:107CF00070930701609306018091C00085FFFCCF5F
:107D0000F092C6008091C00085FFFCCFB092C60003
:107D1000E1CE83E00E94C73CDDCE82E00E94C73CFA
:107D2000D9CE0E94763C809309020E94763C8093D3
:107D300008028091060190910701880F991F909386
:107D40000701809306010E94763C853409F4A6C0A1
:107D500080910C028E7F80930C020E94763C8032D0
:107D600009F0B8CE8091C00085FFFCCFF092C6002C
:107D7000609108027091090261157105B9F140E046
:107D800050E080910C02A82FA170B82FB27011C0E2
:107D9000BB2309F45CC0E0910601F0910701319624
:107DA000F0930701E09306014F5F5F4F46175707B7
:107DB000E8F4AA2369F3F999FECF209106013091E6
:107DC000070132BD21BDF89A90B58091C00085FFB2
:107DD000FCCF9093C6002F5F3F4F30930701209355
:107DE00006014F5F5F4F4617570718F38091C00099
:107DF00085FDE5CE8091C00085FFF8CFE0CE81E023
:107E00000E94C73C67CE0E94763C803209F08CCE3F
:107E10008091C00085FFFCCFF092C6008091C00029
:107E200085FFFCCFE092C6008091C00085FFFCCFAB
:107E3000D092C6008091C00085FFFCCFC092C600E2
:107E40008091C00085FFFCCFB092C60043CEE09188
:107E50000601F091070194918091C00085FFFCCF4D
:107E60009093C6009CCF80E10E94C73C33CE0E9415
:107E7000763C0E94763C182F0E94763C112309F430
:107E800083C0113009F484C08FE00E94C73C22CE29
:107E900080910C02816080930C02E5CE80910C02EF
:107EA000816080930C0259CF809107018823880F4D
:107EB000880B8A2180930B02809106019091070123
:107EC000880F991F90930701809306018091080203
:107ED00080FF09C080910802909109020196909359
:107EE000090280930802F894F999FECF1127E091D6
:107EF0000601F0910701C8E0D1E08091080290915D
:107F00000902103091F40091570001700130D9F34B
:107F100003E000935700E89500915700017001308D
:107F2000D9F301E100935700E89509901990009169
:107F3000570001700130D9F301E000935700E89534
:107F40001395103498F011270091570001700130FB
:107F5000D9F305E000935700E895009157000170B0
:107F60000130D9F301E100935700E895329602976A
:107F700009F0C7CF103011F00296E5CF112480919F
:107F8000C00085FFB9CEBCCE8EE10E94C73CA2CD19
:0C7F900085E90E94C73C9ECDF894FFCF0D
:027F9C00800063
:040000030000780081
:00000001FF
